:020000040800F2
:10000000008001202D030008B5020008BB02000893
:10001000C1020008C7020008CD020008000000006D
:10002000000000000000000000000000D3020008F3
:10003000E102000800000000EF020008FD020008D5
:100040007D0300087D0300087D0300087D03000890
:100050007D0300087D0300087D0300087D03000880
:100060007D0300087D0300087D0300087D03000870
:100070007D0300087D0300087D0300087D03000860
:100080007D0300087D0300087D03000800000000D8
:100090000000000000000000000000007D030008D8
:1000A0007D0300087D0300087D0300087D03000830
:1000B0007D0300087D0300087D0300087D03000820
:1000C0007D0300087D0300087D0300087D03000810
:1000D0007D0300087D0300087D0300080000000088
:1000E0007D0300087D0300087D0300080000000078
:1000F0000000000000000000000000007D03000878
:10010000000000007D0300087D0300087D03000857
:1001100000000000000000000000000000000000DF
:100120007D0300087D0300087D0300087D030008AF
:100130007D03000800000000000000000000000037
:100140000000000000000000000000007D03000827
:100150007D0300087D0300087D0300087D0300087F
:100160007D0300087D03000800000000000000007F
:10017000000000000000000000000000000000007F
:10018000000000007D0300080000000000000000E7
:040190007D030008E3
:1001940010B5054C237833B9044B13B10448AFF3BD
:1001A40000800123237010BD040000200000000023
:1001B400F003000808B5034B1BB103490348AFF330
:1001C400008008BD0000000008000020F0030008C3
:1001D400034613F8012B002AFBD1181A0138704783
:1001E40080B500AF00F008F800F006F8014800F010
:1001F40039F8F9E70804000880B400AF164B1B6C0B
:10020400154A43F400331364134B1B6B124A43F037
:1002140001031363114B1B6A104A43F4E063136236
:100224000E4B1B680D4A43F0200313600C4B40F245
:1002340083629A600A4BDB68094A43F00803D3607F
:10024400074BDB68064A43F40053D36000BFBD4646
:100254005DF8047B704700BF003802400000024094
:100264000044004090B585B000AF78600023FB7374
:100274000FE000BF0D4B1B6803F08003002BF9D087
:10028400FB7B7A6813441A78084B5A60FB7B013372
:10029400FB73FC7B7868FFF79BFF03469C42E8D323
:1002A40000BF00BF1437BD4690BD00BF00440040EE
:1002B40080B400AFFEE780B400AFFEE780B400AFC7
:1002C400FEE780B400AFFEE780B400AFFEE780B481
:1002D40000AF00BFBD465DF8047B704780B400AF3B
:1002E40000BFBD465DF8047B704780B400AF00BF1B
:1002F400BD465DF8047B704780B500AF00F03EF862
:1003040000BF80BD80B400AF064BD3F88830054AE7
:1003140043F47003C2F8883000BFBD465DF8047B27
:10032400704700BF00ED00E0DFF834D00D480E49FF
:100334000E4A002302E0D458C4500433C4188C423B
:10034400F9D30B4A0B4C002301E013600432A242A0
:10035400FBD3FFF7D7FF00F025F8FFF741FF704705
:100364000080012000000020040000202004000878
:100374000400002024000020FEE7000080B400AF49
:10038400064B1B781A46064B1B681344044A136039
:1003940000BFBD465DF8047B704700BF000000202D
:1003A4002000002070B50D4D0D4C641BA4100026D8
:1003B400A64209D10B4D0C4C00F018F8641BA41094
:1003C4000026A64205D170BD55F8043B9847013676
:1003D400EEE755F8043B98470136F2E718040008A5
:1003E40018040008180400081C040008F8B500BF2D
:1003F400F8BC08BC9E467047F8B500BFF8BC08BC02
:040404009E46704759
:1004080055534152543220574F524B53000000006D
:04041800B90100081E
:04041C00950100083E
:0404200001000000D7
:040000050800032DBF
:00000001FF
