:020000040800F2
:1000000000800120A1080008BD070008C307000800
:10001000C9070008CF070008D50700080000000046
:10002000000000000000000000000000DB070008E6
:10003000E907000800000000F707000805080008AD
:10004000F1080008F1080008F1080008F1080008AC
:10005000F1080008F1080008F1080008F10800089C
:10006000F1080008F1080008F1080008F10800088C
:10007000F1080008F1080008F1080008F10800087C
:10008000F1080008F1080008F1080008000000006D
:10009000000000000000000000000000F10800085F
:1000A000F1080008F1080008F1080008F10800084C
:1000B000F1080008F1080008F1080008F10800083C
:1000C000F1080008F1080008F1080008F10800082C
:1000D000F1080008F1080008F1080008000000001D
:1000E000F1080008F1080008F1080008000000000D
:1000F000000000000000000000000000F1080008FF
:1001000000000000F1080008F1080008F1080008EC
:1001100000000000000000000000000000000000DF
:10012000F1080008F1080008F1080008F1080008CB
:10013000F1080008000000000000000000000000BE
:10014000000000000000000000000000F1080008AE
:10015000F1080008F1080008F1080008F10800089B
:10016000F1080008F108000800000000000000008D
:10017000000000000000000000000000000000007F
:1001800000000000F108000800000000000000006E
:04019000F10800086A
:1001A00010B5054C237833B9044B13B10448AFF3B1
:1001B00000800123237010BD6800002000000000B3
:1001C000DC11000808B5034B1BB103490348AFF32A
:1001D000008008BD000000006C000020DC11000859
:1001E00001F0FF01102A2BDB10F0070F08D010F8E8
:1001F000013B013A8B422DD010F0070F42B3F6D1EC
:10020000F0B441EA012141EA014122F007047FF004
:1002100000070023F0E80256083C85EA010586EA5B
:10022000010685FA47F5A3FA87F586FA47F6A5FA97
:1002300087F68EB9EED1F0BC01F0FF0102F00702A3
:1002400032B110F8013B013A83EA010313B1F8D14E
:100250000020704701387047002D06BF354603382F
:10026000073815F0010F07D1013015F4807F02BF68
:10027000013015F4C03F0130F0BC0138704700BFB9
:1002800080B400AF094B1B68084A43F001031360B8
:1002900000BF064B1B6803F00203002BF9D000BF20
:1002A00000BFBD465DF8047B704700BF00380240C8
:1002B00080B400AF164B1B6B154A43F00403136365
:1002C000134B5B6C124A43F020035364114B4FF005
:1002D00008421A620F4B1B680E4A43F40053136026
:1002E0000C4B1B680B4A43F4004313600A4B40F26B
:1002F00082629A60084BDB68074A43F4005343F07C
:100300002C03D36000BFBD465DF8047B704700BF7F
:1003100000380240000802400014014080B483B05D
:1003200000AF0346FB7100BF074B1B6803F080035F
:10033000002BF9D0044AFB79536000BF0C37BD464F
:100340005DF8047B704700BF0014014080B582B0A7
:1003500000AF786007E07B681B781846FFF7DEFF88
:100360007B6801337B607B681B78002BF3D100BF77
:1003700000BF0837BD4680BD80B500AF234B1B6B67
:10038000224A43F002031363204B1B6C1F4A43F4C1
:10039000800313641E4B5B6A1D4A43F48843536217
:1003A0001B4B1B681A4A43F420031360184B1B684D
:1003B000174A23F4A0031360154B5B68144A43F4F7
:1003C00040635360124BDB68114A23F4E003D360AF
:1003D000104B5B680F4A43F0100353600D4BDB6911
:1003E0000C4A43F05003D3610A4B1B6A094A43F09D
:1003F00011031362074B1B68064A43F001031360A5
:100400000548FFF7A3FF00BF80BD00BF00380240D2
:100410000004024000580040F411000880B400AF0E
:10042000094B1B68084A43F48073136000BF064BF6
:100430005B6903F00103002BF9D000BF00BFBD468C
:100440005DF8047B704700BF0058004080B485B061
:1004500000AF03460A46FB711346BB71BB79772B8D
:100460000FD1FB795B00124ADBB2136100BF104B66
:100470005B6903F00203002BF9D00D4B9B69FB6015
:100480000FE0BB79722B0CD1FB795B0043F00102CA
:10049000074B1A6100BF064B5B6903F00203002B98
:1004A000F9D000BF1437BD465DF8047B704700BF2C
:1004B0000058004080B483B000AF0346FB710C4A83
:1004C000FB79136100BF0A4B5B6903F08003002BCB
:1004D000F9D000BF064B5B6903F00403002BF9D091
:1004E00000BF00BF0C37BD465DF8047B704700BFFE
:1004F0000058004080B400AF054B1B68044A43F429
:100500000073136000BFBD465DF8047B704700BFF9
:100510000058004080B586B000AF7860FFF77EFFDE
:1005200077216820FFF792FF0020FFF7C3FFFFF756
:1005300075FF72216820FFF789FF00237B612DE0A2
:100540007B69062B10D11A4B1B68194A23F4806370
:100550001360174B9B69FB6000BF154B5B6903F091
:100560000403002BF9D00FE0114B1B68104A43F431
:10057000806313600E4B9B693B6100BF0C4B5B6952
:1005800003F00403002BF9D0094B19697B697A68E1
:100590001344CAB21A707B6901337B617B69062BF5
:1005A000CEDDFFF7A7FF00BF1837BD4680BD00BFF7
:1005B0000058004080B59CB000AF00237B6007F17D
:1005C000080360220021184600F0D2F9FFF758FE18
:1005D000FFF7D2FEFFF76CFE6848FFF7B7FE07F1A2
:1005E00068031846FFF796FF97F86A300F2B08D874
:1005F00097F86A301A463B1D6149184600F0C0F969
:1006000007E097F86A301A463B1D5E49184600F02D
:10061000B7F93B1D1846FFF799FE97F869300F2B85
:1006200008D897F869301A463B1D5749184600F01C
:10063000A7F907E097F869301A463B1D5349184659
:1006400000F09EF93B1D1846FFF780FE97F86830D2
:100650000F2B08D897F868301A463B1D4A491846B0
:1006600000F08EF907E097F868301A463B1D4849BC
:10067000184600F085F93B1D1846FFF767FE97F80E
:100680006B30013B062B2DD801A252F823F000BF9E
:10069000AD060008B5060008BD060008C50600083E
:1006A000CD060008D5060008DD0600083948FFF72A
:1006B0004DFE17E03848FFF749FE13E03748FFF7D3
:1006C00045FE0FE03648FFF741FE0BE03548FFF7E7
:1006D0003DFE07E03448FFF739FE03E03348FFF7FB
:1006E00035FE00BF97F86C300F2B08D897F86C30A8
:1006F0001A463B1D2449184600F042F907E097F8D6
:100700006C301A463B1D2A49184600F039F93B1D4A
:100710001846FFF71BFE97F86D300F2B08D897F897
:100720006D301A463B1D1849184600F029F907E0BC
:1007300097F86D301A463B1D1449184600F020F911
:100740003B1D1846FFF702FE97F86E300F2B08D8B6
:1007500097F86E301A463B1D1649184600F010F9FE
:1007600007E097F86E301A463B1D1349184600F013
:1007700007F93B1D1846FFF7E9FD30E708120008AE
:10078000181200081C120008201200082812000885
:100790002C12000834120008401200084C12000805
:1007A0005812000864120008701200087C12000839
:1007B000881200088C1200089812000880B400AF5C
:1007C000FEE780B400AFFEE780B400AFFEE780B480
:1007D00000AFFEE780B400AFFEE780B400AF00BF1B
:1007E000BD465DF8047B704780B400AF00BFBD46D6
:1007F0005DF8047B704780B400AF00BFBD465DF874
:10080000047B704780B500AF00F074F800BF80BD76
:1008100080B586B000AF7860144A154BD31A7B615F
:100820007B693B61134B1B68002B02D1114B124AB1
:100830001A60104B1A687B6813443A699A4207D2CF
:1008400000F06CF803460C221A604FF0FF3309E009
:10085000084B1B68FB60074B1A687B681344054A0A
:100860001360FB6818461837BD4680BD0080012024
:100870000004000084000020A800002080B400AF25
:10088000064BD3F88830054A43F47003C2F8883029
:1008900000BFBD465DF8047B704700BF00ED00E07F
:1008A000DFF834D00D480E490E4A002302E0D45838
:1008B000C4500433C4188C42F9D30B4A0B4C0023A8
:1008C00001E013600432A242FBD3FFF7D7FF00F030
:1008D0002BF8FFF76FFE704700800120000000201A
:1008E00068000020DC12000868000020A40000203E
:1008F000FEE7000080B400AF064B1B781A46064B9B
:100900001B681344044A136000BFBD465DF8047BB6
:10091000704700BF0000002090000020014B1868C5
:10092000704700BF0400002070B50D4D0D4C641BD6
:10093000A4100026A64209D10B4D0C4C00F04EFC31
:10094000641BA4100026A64205D170BD55F8043BD7
:1009500098470136EEE755F8043B98470136F2E731
:10096000D4120008D4120008D4120008D8120008CB
:1009700002440346934200D1704703F8011BF9E794
:100980000EB400B59CB01DAB029006906FF0004114
:10099000094807910491094953F8042B059100680F
:1009A000019302A900F068F8029B00221A701CB0A3
:1009B0005DF804EB03B07047040000200802FFFF5D
:1009C0002DE9F0478E689E4282460C4690461F46AF
:1009D00038D88A8912F4906F32D025680969A5EB5E
:1009E0000109656905EB450505EBD57501334B44F8
:1009F0006D109D4238BF1D46530531D5294600F084
:100A000047FB064650B90C23CAF80030A38943F0CF
:100A10004003A3814FF0FF30BDE8F08721694A46CB
:100A200000F0BEFAA38923F4906343F08003A3810E
:100A3000266165614E44A5EB09052660A5603E462A
:100A4000BE4200D93E4632462068414600F0B6FA22
:100A5000A36822689B1B3244A36022600020DBE76E
:100A60002A4600F06FFB06460028E1D12169504676
:100A700000F0BEFAC7E700002DE9F04F98468B89D9
:100A80001B069DB007460D4614460ED50B6963B98B
:100A9000402100F0FDFA2860286120B90C233B605A
:100AA0004FF0FF30D1E040236B61002309932023F6
:100AB0008DF82930CDF80C803023DFF8A8818DF82F
:100AC0002A304FF0010923469A4613F8012B0AB148
:100AD000252AF9D1BAEB040B0BD05B4622462946F6
:100AE0003846FFF76DFF013000F0AA80099A5A449A
:100AF00009929AF80030002B00F0A28000234FF0FA
:100B0000FF32CDE905230AF1010A049307938DF81A
:100B100053301A935446052214F8011B5148FFF72D
:100B20005FFB049AD8B9D00644BF20238DF8533018
:100B3000110744BF2B238DF853309AF800302A2B2D
:100B400015D0079A544600204FF00A0C214611F8A0
:100B5000013B303B092B4ED9B0B1079214E0A0EB1A
:100B6000080309FA03F313430493A246D2E7039B55
:100B7000191D1B680391002BBBBF5B4242F00202B0
:100B800007930793B8BF049223782E2B0CD1637878
:100B90002A2B35D1039B1A1D1B680392002BB8BF6B
:100BA0004FF0FF3302340593DFF8C8A02178032209
:100BB0005046FFF715FB40B14023A0EB0A0003FAB3
:100BC00000F0049B03430134049314F8011B2648EE
:100BD0008DF828100622FFF703FB002838D0234B9E
:100BE0001BBB039B073323F0070308330393099BC5
:100BF0003344099367E70CFB02320C460120A5E75A
:100C000000230134059319464FF00A0C204610F8D2
:100C1000012B303A092A03D9002BC5D00591C3E72F
:100C20000CFB012104460123F0E703AB00932A46A5
:100C30000F4B04A93846AFF30080421C0646D6D1BC
:100C4000AB895B063FF52CAF09981DB0BDE8F08F6E
:100C500003AB00932A46064B04A9384600F07AF805
:100C6000EBE700BFA1120008AB1200080000000073
:100C7000C1090008A71200082DE9F0471646994659
:100C80008A680B69DDF820809342B8BF1346336051
:100C900091F8432007460C460AB1013333602368BC
:100CA000990642BF336802333360256815F00605A4
:100CB00006D104F1190AE36832689B1AAB4226DCBC
:100CC00094F84320131E226818BF012392062BD4E8
:100CD00004F1430249463846C04701301ED023681C
:100CE000E568326803F00603042B08BFAD1AA36859
:100CF00022690CBF25EAE57500259342C4BF9B1A03
:100D0000ED1800261A34B5421AD1002008E001235C
:100D1000524649463846C047013003D14FF0FF30B4
:100D2000BDE8F0870135C6E7E1185A1C302081F88C
:100D30004300224494F8451082F843100233C7E779
:100D40000123224649463846C0470130E6D00136E5
:100D5000D9E700002DE9FF470C469146277E0C9904
:100D6000782F80469A4604F1430207D8622F0AD8AA
:100D7000002F00F0D880582F00F0A38004F1420625
:100D800084F842703AE0A7F16303152BF6D801A06E
:100D900050F823F0ED0D0008010E00087D0D00084D
:100DA0007D0D00087D0D00087D0D0008010E000876
:100DB0007D0D00087D0D00087D0D00087D0D0008EB
:100DC0000D0F0008310E0008EF0E00087D0D000821
:100DD0007D0D00082F0F00087D0D0008310E000862
:100DE0007D0D00087D0D0008F70E00080B681A1D28
:100DF0001B680A6004F1420684F842300123A3E034
:100E0000256808682E0600F104030AD505680B6002
:100E1000002D03DA2D236D4284F843305E480A2307
:100E200019E015F0400F05680B6018BF2DB2EFE711
:100E30000B682568181D0860280601D51D6802E0AA
:100E40006906FBD51D8854486F2F0CBF08230A2361
:100E5000002184F843106668A660002EA2BF2168B6
:100E600021F0040121600DB9002E4DD01646B5FBCE
:100E7000F3F103FB1157C75D06F8017D2F46BB4216
:100E80000D46F4D9082B0BD12368DF0708D5236959
:100E900061689942DEBF302306F8013C06F1FF3657
:100EA000921B2261CDF800A04B4603AA2146404682
:100EB000FFF7E2FE01304CD14FF0FF3004B0BDE847
:100EC000F087354884F8457023680E681F0656F889
:100ED000045B0E6014D5D90744BF43F020032360A0
:100EE0001DB9236823F0200323601023B0E7236893
:100EF00043F0200323607823284884F84530E3E753
:100F00005E0648BFADB2E6E71646BBE70B6826684B
:100F100060691D1D0D6035061B6801D5186002E073
:100F20007106FBD51880002323611646BAE70B68CB
:100F30001A1D0A601E68626800213046FFF750F9EA
:100F400008B1801B606063682361002384F843302C
:100F5000A8E72369324649464046D0470130ABD026
:100F600023689B0713D4E068039B9842B8BF1846D8
:100F7000A4E70123324649464046D04701309BD082
:100F80000135E36803995B1AAB42F2DCEBE700251D
:100F900004F11906F5E700BFB2120008C3120008F9
:100FA0000A44914200F1FF3300D1704710B511F8A7
:100FB000014B03F8014F9142F9D110BD884210B5A1
:100FC00001EB020402D98442234607D8431EA14202
:100FD00008D011F8012B03F8012FF8E7024401466D
:100FE0008A4200D110BD13F8014D02F8014DF7E718
:100FF00037B5002948D051F8043C0190002BA1F1ED
:101000000404B8BFE41800F0D3F8204A019813682C
:10101000154633B96360146003B0BDE8304000F09A
:10102000CDB8A3420BD921686218934204BF1A6855
:101030005B68636004BF521822602C60ECE71A46BC
:101040005B680BB1A342FAD911685518A5420BD1C0
:10105000246821445418A3421160DDD11C685B68E8
:10106000536021441160D7E702D90C230360D3E712
:10107000256861198B4204BF19685B68636004BF0F
:10108000491921605460C7E703B030BD88000020D3
:10109000F8B5CD1C25F0030508350C2D38BF0C25FF
:1010A000002D064601DBA94203D90C233360002042
:1010B000F8BD00F07DF821490A6814469CB9204F1C
:1010C0003B6823B92146304600F062F83860294673
:1010D000304600F05DF8431C23D10C2333603046CA
:1010E00000F06CF8E3E723685B1B17D40B2B03D9E4
:1010F00023601C44256004E06368A2420CBF0B60BF
:101100005360304600F05AF804F10B00231D20F024
:101110000700C21ACCD01B1AA350C9E72246646844
:10112000CCE7C41C24F00304A042E3D0211A3046CB
:1011300000F02EF80130DDD1CFE700BF880000209D
:101140008C000020F8B5074614460E4621B9BDE8CC
:10115000F8401146FFF79CBF22B9FFF749FF25462B
:101160002846F8BD00F030F8A0420FD2214638469C
:10117000FFF78EFF05460028F2D031462246FFF7E2
:101180000FFF31463846FFF733FFE9E73546E7E71B
:1011900038B5064D0023044608462B60FFF738FBA0
:1011A000431C02D12B6803B1236038BD940000209A
:1011B000014800F011B800BF9C000020014800F079
:1011C0000CB800BF9C00002051F8043C181F002BF5
:1011D000BCBF0B58C018704770477047F8B500BFC8
:1011E000F8BC08BC9E467047F8B500BFF8BC08BC08
:0411F0009E46704760
:1011F400434F4E464947204932432E2E2E2E2E2E43
:101204002E0A0A00525443207573696E67204932CE
:10121400433A0A0030257800257800003A302578D2
:10122400000000003A2578003A25782000000000EC
:101234004D6F6E6461792020202000005475657321
:1012440064617920202000005765646E65736461D1
:10125400792000005468757273646179202000005D
:1012640046726964617920202020000053617475FE
:10127400726461792020000053756E6461792020C6
:1012840020200000202578003A3230302578200ACA
:101294000A0000003A32302578200A0A00232D3053
:1012A4002B2000686C4C006566674546470030316A
:1012B40032333435363738394142434445460030B9
:1012C40031323334353637383961626364656600E8
:0412D400C501000848
:0412D800A101000868
:1012DC0001000000080000200000000000000000D9
:1012EC0000000000000000000000000000000000F2
:1012FC0000000000000000000000000000000000E2
:10130C0000000000000000000000000000000000D1
:10131C0000000000000000000000000000000000C1
:10132C0000000000000000000000000000000000B1
:08133C000000000000000000A9
:04000005080008A146
:00000001FF
