:020000040800F2
:1000000000800120A1030008270300082D03000839
:1000100033030008390300083F0300080000000014
:100020000000000000000000000000004503000880
:100030005303000800000000610300086F0300087C
:10004000F1030008F1030008F1030008F1030008C0
:10005000F1030008F1030008F1030008F1030008B0
:10006000F1030008F1030008F1030008F1030008A0
:10007000F1030008F1030008F1030008F103000890
:10008000F1030008F1030008F1030008000000007C
:10009000000000000000000000000000F103000864
:1000A000F1030008F1030008F1030008F103000860
:1000B000F1030008F1030008F1030008F103000850
:1000C000F1030008F1030008F1030008F103000840
:1000D000F1030008F1030008F1030008000000002C
:1000E000F1030008F1030008F1030008000000001C
:1000F000000000000000000000000000F103000804
:1001000000000000F1030008F1030008F1030008FB
:1001100000000000000000000000000000000000DF
:10012000F1030008F1030008F1030008F1030008DF
:10013000F1030008000000000000000000000000C3
:10014000000000000000000000000000F1030008B3
:10015000F1030008F1030008F1030008F1030008AF
:10016000F1030008F1030008000000000000000097
:10017000000000000000000000000000000000007F
:1001800000000000F1030008000000000000000073
:04019000F10300086F
:1001940010B5054C237833B9044B13B10448AFF3BD
:1001A40000800123237010BD040000200000000023
:1001B4006404000808B5034B1BB103490348AFF3BB
:1001C400008008BD0000000008000020640400084E
:1001D40080B582B000AF00F011F84123FB7109E053
:1001E400FB79184600F058F8642000F07DF8FB799C
:1001F4000133FB71FB795A2BF2D9EEE780B400AFDF
:10020400224B1B6B214A43F0010313631F4B5B6CAE
:100214001E4A43F4805353641D4B1B681C4A23F449
:100224004C4313601A4B1B68194A43F40843136088
:10023400174B1B6A164A23F0704323F470031362AE
:10024400134B1B6A124A43F0A04343F4A003136206
:100254000F4B1B680E4A23F4407313600C4B1B684E
:100264000B4A43F4807313600A4B4FF447721A60CD
:10027400084B00225A60074B1B68064A43F04003B0
:10028400136000BFBD465DF8047B70470038024030
:10029400000002400030014080B483B000AF034648
:1002A400FB7100BF0E4B9B6803F00203002BF9D0D7
:1002B4000C4B4FF480129A61094AFB79D36000BF5A
:1002C400074B9B6803F08003002BF9D1054B1022E8
:1002D4009A6100BF0C37BD465DF8047B704700BFD0
:1002E400003001400000024080B485B000AF786067
:1002F4000DE00023FB6002E0FB680133FB60FB6858
:1003040040F67A429342F7DD7B68013B7B607B6871
:10031400002BEEDC00BF00BF1437BD465DF8047B44
:10032400704780B400AFFEE780B400AFFEE780B44E
:1003340000AFFEE780B400AFFEE780B400AFFEE795
:1003440080B400AF00BFBD465DF8047B704780B445
:1003540000AF00BFBD465DF8047B704780B400AFBA
:1003640000BFBD465DF8047B704780B500AF00F068
:100374003FF800BF80BD000080B400AF064BD3F847
:100384008830054A43F47003C2F8883000BFBD4684
:100394005DF8047B704700BF00ED00E0DFF834D067
:1003A4000D480E490E4A002302E0D458C4500433C9
:1003B400C4188C42F9D30B4A0B4C002301E01360A0
:1003C4000432A242FBD3FFF7D7FF00F025F8FFF772
:1003D400FFFE704700800120000000200400002080
:1003E400840400080400002024000020FEE700002C
:1003F40080B400AF064B1B781A46064B1B681344A7
:10040400044A136000BFBD465DF8047B704700BF1B
:10041400000000202000002070B50D4D0D4C641B21
:10042400A4100026A64209D10B4D0C4C00F018F87C
:10043400641BA4100026A64205D170BD55F8043BE8
:1004440098470136EEE755F8043B98470136F2E742
:100454007C0400087C0400087C0400088004000874
:10046400F8B500BFF8BC08BC9E467047F8B500BF9D
:08047400F8BC08BC9E4670476D
:04047C00B9010008BA
:0404800095010008DA
:040484000100000073
:04000005080003A14B
:00000001FF
