:020000040800F2
:1000000000800120510B00086D0A0008730A0008E7
:10001000790A00087F0A0008850A0008000000002D
:100020000000000000000000000000008B0A000833
:10003000990A000800000000A70A0008B50A000895
:10004000A10B0008A10B0008A10B0008A10B0008E0
:10005000A10B0008A10B0008A10B0008A10B0008D0
:10006000A10B0008A10B0008A10B0008A10B0008C0
:10007000A10B0008A10B0008A10B0008A10B0008B0
:10008000A10B0008A10B0008A10B00080000000054
:10009000000000000000000000000000A10B0008AC
:1000A000A10B0008A10B0008A10B0008A10B000880
:1000B000A10B0008A10B0008A10B0008A10B000870
:1000C000A10B0008A10B0008A10B0008A10B000860
:1000D000A10B0008A10B0008A10B00080000000004
:1000E000A10B0008A10B0008A10B000800000000F4
:1000F000000000000000000000000000A10B00084C
:1001000000000000A10B0008A10B0008A10B0008D3
:1001100000000000000000000000000000000000DF
:10012000A10B0008A10B0008A10B0008A10B0008FF
:10013000A10B00080000000000000000000000000B
:10014000000000000000000000000000A10B0008FB
:10015000A10B0008A10B0008A10B0008A10B0008CF
:10016000A10B0008A10B0008000000000000000027
:10017000000000000000000000000000000000007F
:1001800000000000A10B00080000000000000000BB
:04019000A10B0008B7
:1001A00010B5054C237833B9044B13B10448AFF3B1
:1001B00000800123237010BD6800002000000000B3
:1001C0007C14000808B5034B1BB103490348AFF387
:1001D000008008BD000000006C0000207C140008B6
:1001E00001F0FF01102A2BDB10F0070F08D010F8E8
:1001F000013B013A8B422DD010F0070F42B3F6D1EC
:10020000F0B441EA012141EA014122F007047FF004
:1002100000070023F0E80256083C85EA010586EA5B
:10022000010685FA47F5A3FA87F586FA47F6A5FA97
:1002300087F68EB9EED1F0BC01F0FF0102F00702A3
:1002400032B110F8013B013A83EA010313B1F8D14E
:100250000020704701387047002D06BF354603382F
:10026000073815F0010F07D1013015F4807F02BF68
:10027000013015F4C03F0130F0BC0138704700BFB9
:1002800070B54FF0FF0C4CF4E06C1CEA11541DBF2C
:100290001CEA135594EA0C0F95EA0C0F00F0DEF8F7
:1002A0002C4481EA030621EA4C5123EA4C5350EADC
:1002B000013518BF52EA033541F4801143F480132D
:1002C00038D0A0FB02CE4FF00005E1FB02E506F0BE
:1002D0000042E0FB03E54FF00006E1FB03569CF013
:1002E000000F18BF4EF0010EA4F1FF04B6F5007F19
:1002F00064F5407404D25FEA4E0E6D4146EB06068B
:1003000042EAC62141EA55514FEAC52040EA5E5013
:100310004FEACE2EB4F1FD0C88BFBCF5E06F1ED8BD
:10032000BEF1004F08BF5FEA500E50F1000041EBF4
:10033000045170BD06F0004646EA010140EA0200A1
:1003400081EA0301B4EB5C04C2BFD4EB0C0541EAC3
:10035000045170BD41F480114FF0000E013C00F3D8
:10036000AB8014F1360FDEBF002001F0004170BDFC
:10037000C4F10004203C35DA0C341BDC04F1140415
:10038000C4F1200500FA05F320FA04F001FA05F2A1
:1003900040EA020001F0004221F0004110EBD3706E
:1003A00021FA04F642EB06015EEA430E08BF20EA9A
:1003B000D37070BDC4F10C04C4F1200500FA04F33D
:1003C00020FA05F001FA04F240EA020001F00041CF
:1003D00010EBD37041F100015EEA430E08BF20EA42
:1003E000D37070BDC4F1200500FA05F24EEA020E8A
:1003F00020FA04F301FA05F243EA020321FA04F0B9
:1004000001F0004121FA04F220EA020000EBD3706F
:100410005EEA430E08BF20EAD37070BD94F0000F6F
:100420000FD101F00046400041EB010111F4801FA3
:1004300008BF013CF7D041EA060195F0000F18BF54
:10044000704703F00046520043EB030313F4801F90
:1004500008BF013DF7D043EA0603704794EA0C0F4A
:100460000CEA135518BF95EA0C0F0CD050EA410660
:1004700018BF52EA4306D1D181EA030101F00041DD
:100480004FF0000070BD50EA410606BF1046194605
:1004900052EA430619D094EA0C0F02D150EA013611
:1004A00013D195EA0C0F05D152EA03361CBF104652
:1004B00019460AD181EA030101F0004141F0FE41F1
:1004C00041F470014FF0000070BD41F0FE4141F475
:1004D000780170BD81F0004102E000BF83F000436D
:1004E00030B54FEA41044FEA430594EA050F08BFCF
:1004F00090EA020F1FBF54EA000C55EA020C7FEA93
:10050000645C7FEA655C00F0E2804FEA5454D4EB0F
:100510005555B8BF6D420CDD2C4480EA020281EAD9
:10052000030382EA000083EA010180EA020281EA11
:100530000303362D88BF30BD11F0004F4FEA013163
:100540004FF4801C4CEA113102D0404261EB410172
:1005500013F0004F4FEA03334CEA133302D05242F8
:1005600063EB430394EA050F00F0A780A4F10104B4
:10057000D5F1200E0DDB02FA0EFC22FA05F28018EE
:1005800041F1000103FA0EF2801843FA05F35941D4
:100590000EE0A5F120050EF1200E012A03FA0EFC53
:1005A00028BF4CF0020C43FA05F3C01851EBE3717D
:1005B00001F0004507D54FF0000EDCF1000C7EEB9A
:1005C00000006EEB0101B1F5801F1BD3B1F5001FD8
:1005D0000CD349085FEA30004FEA3C0C04F10104F7
:1005E0004FEA445212F5800F80F09A80BCF1004F20
:1005F00008BF5FEA500C50F1000041EB045141EAA2
:10060000050130BD5FEA4C0C404141EB0101013C6A
:1006100028BFB1F5801FE9D291F0000F04BF014659
:100620000020B1FA81F308BF2033A3F10B03B3F12B
:1006300020020CDA0C3208DD02F1140CC2F10C02BB
:1006400001FA0CF021FA02F10CE002F11402D8BF19
:10065000C2F1200C01FA02F120FA0CFCDCBF41EAE5
:100660000C019040E41AA2BF01EB0451294330BDB4
:100670006FEA04041F3C1CDA0C340EDC04F1140491
:10068000C4F1200220FA04F001FA02F340EA030068
:1006900021FA04F345EA030130BDC4F10C04C4F1AE
:1006A000200220FA02F001FA04F340EA030029468E
:1006B00030BD21FA04F0294630BD94F0000F83F4D8
:1006C000801306BF81F480110134013D4EE77FEABB
:1006D000645C18BF7FEA655C29D094EA050F08BF07
:1006E00090EA020F05D054EA000C04BF19461046E8
:1006F00030BD91EA030F1EBF0021002030BD5FEA2C
:10070000545C05D14000494128BF41F0004130BD53
:1007100014F580043CBF01F5801130BD01F00045A7
:1007200045F0FE4141F470014FF0000030BD7FEA1A
:10073000645C1ABF194610467FEA655C1CBF0B4615
:10074000024650EA013406BF52EA033591EA030F2C
:1007500041F4002130BD00BF90F0000F04BF002124
:10076000704730B54FF4806404F132044FF0000557
:100770004FF0000150E700BF90F0000F04BF0021D0
:10078000704730B54FF4806404F1320410F0004536
:1007900048BF40424FF000013EE700BF42004FEA31
:1007A000E2014FEA31014FEA02701FBF12F07F43AE
:1007B00093F07F4F81F06051704732F07F4208BF65
:1007C000704793F07F4F04BF41F40021704730B56C
:1007D0004FF4607401F0004521F000411CE700BFB8
:1007E00050EA010208BF704730B54FF000050AE03B
:1007F00050EA010208BF704730B511F0004502D53C
:10080000404261EB41014FF4806404F132045FEA3D
:10081000915C3FF4D8AE4FF003025FEADC0C18BFE6
:1008200003325FEADC0C18BF033202EBDC02C2F1D8
:10083000200300FA03FC20FA02F001FA03FE40EA6A
:100840000E0021FA02F11444BDE600BF4A0011D2A5
:1008500012F5001211D20DD56FF47873B3EB62521A
:100860000ED44FEAC12343F0004343EA505323FA26
:1008700002F070474FF00000704750EA013002D19B
:100880004FF0FF3070474FF00000704780B400AF6A
:10089000094B1B68084A43F00103136000BF064B75
:1008A0001B6803F00203002BF9D000BF00BFBD4658
:1008B0005DF8047B704700BF0038024080B400AF91
:1008C000164B1B6B154A43F004031363134B5B6C0D
:1008D000124A43F020035364114B4FF008421A624E
:1008E0000F4B1B680E4A43F4005313600C4B1B68FC
:1008F0000B4A43F4004313600A4B40F282629A6051
:10090000084BDB68074A43F4005343F02C03D360E1
:1009100000BFBD465DF8047B704700BF0038024051
:10092000000802400014014080B483B000AF0346C9
:10093000FB7100BF074B1B6803F08003002BF9D04D
:10094000044AFB79536000BF0C37BD465DF8047B59
:10095000704700BF0014014080B582B000AF7860DE
:1009600007E07B681B781846FFF7DEFF7B680133E2
:100970007B607B681B78002BF3D100BF00BF08377A
:10098000BD4680BD80B400AF0F4B5B6C0E4A43F494
:10099000807353640C4B1B6B0B4A43F001031363CE
:1009A0000A4B06225A600A4B01229A60084B002229
:1009B0005A63084B1B68074A43F03F03136000BFAC
:1009C000BD465DF8047B70470038024000230140BB
:1009D000002001400000024080B582B000AF164BFD
:1009E0009B68154A43F08043936000BF124B1B681D
:1009F00003F00203002BF9D00F4BDB6C7B607B68AC
:100A0000642202FB03F31846FFF7B6FE08A3D3E9FE
:100A10000023FFF735FC02460B4610461946FFF748
:100A200015FF0346FB70FB7818460837BD4680BDAE
:100A3000B4D934E70C684A3F0020014080B500AFCC
:100A4000FFF724FFFFF79EFFFFF738FFFFF7C4FF14
:100A500003461A460349044800F0E2F80248FFF74B
:100A60007BFFF3E7941400088400002080B400AFFB
:100A7000FEE780B400AFFEE780B400AFFEE780B4CD
:100A800000AFFEE780B400AFFEE780B400AF00BF68
:100A9000BD465DF8047B704780B400AF00BFBD4623
:100AA0005DF8047B704780B400AF00BFBD465DF8C1
:100AB000047B704780B500AF00F074F800BF80BDC4
:100AC00080B586B000AF7860144A154BD31A7B61AD
:100AD0007B693B61134B1B68002B02D1114B124AFF
:100AE0001A60104B1A687B6813443A699A4207D21D
:100AF00000F06CF803460C221A604FF0FF3309E057
:100B0000084B1B68FB60074B1A687B681344054A57
:100B10001360FB6818461837BD4680BD0080012071
:100B200000040000E80000200801002080B400AFAD
:100B3000064BD3F88830054A43F47003C2F8883076
:100B400000BFBD465DF8047B704700BF00ED00E0CC
:100B5000DFF834D00D480E490E4A002302E0D45885
:100B6000C4500433C4188C42F9D30B4A0B4C0023F5
:100B700001E013600432A242FBD3FFF7D7FF00F07D
:100B80002BF8FFF75BFF704700800120000000207A
:100B900068000020DC140008680000200801002024
:100BA000FEE7000080B400AF064B1B781A46064BE8
:100BB0001B681344044A136000BFBD465DF8047B04
:100BC000704700BF00000020F4000020014B1868AF
:100BD000704700BF0400002070B50D4D0D4C641B24
:100BE000A4100026A64209D10B4D0C4C00F046FC87
:100BF000641BA4100026A64205D170BD55F8043B25
:100C000098470136EEE755F8043B98470136F2E77E
:100C1000D4140008D4140008D4140008D814000810
:100C20000EB400B59CB01DAB029006906FF0004171
:100C3000094807910491094953F8042B059100686C
:100C4000019302A900F068F8029B00221A701CB000
:100C50005DF804EB03B07047040000200802FFFFBA
:100C60002DE9F0478E689E4282460C4690461F460C
:100C700038D88A8912F4906F32D025680969A5EBBB
:100C80000109656905EB450505EBD57501334B4455
:100C90006D109D4238BF1D46530531D5294600F0E1
:100CA00047FB064650B90C23CAF80030A38943F02D
:100CB0004003A3814FF0FF30BDE8F08721694A4629
:100CC00000F0BEFAA38923F4906343F08003A3816C
:100CD000266165614E44A5EB09052660A5603E4688
:100CE000BE4200D93E4632462068414600F0B6FA80
:100CF000A36822689B1B3244A36022600020DBE7CC
:100D00002A4600F06FFB06460028E1D121695046D3
:100D100000F0BEFAC7E700002DE9F04F98468B8936
:100D20001B069DB007460D4614460ED50B6963B9E8
:100D3000402100F0FDFA2860286120B90C233B60B7
:100D40004FF0FF30D1E040236B6100230993202353
:100D50008DF82930CDF80C803023DFF8A8818DF88C
:100D60002A304FF0010923469A4613F8012B0AB1A5
:100D7000252AF9D1BAEB040B0BD05B462246294653
:100D80003846FFF76DFF013000F0AA80099A5A44F7
:100D900009929AF80030002B00F0A28000234FF057
:100DA000FF32CDE905230AF1010A049307938DF878
:100DB00053301A935446052214F8011B5148FFF78B
:100DC0000FFA049AD8B9D00644BF20238DF85330C7
:100DD000110744BF2B238DF853309AF800302A2B8B
:100DE00015D0079A544600204FF00A0C214611F8FE
:100DF000013B303B092B4ED9B0B1079214E0A0EB78
:100E0000080309FA03F313430493A246D2E7039BB2
:100E1000191D1B680391002BBBBF5B4242F002020D
:100E200007930793B8BF049223782E2B0CD16378D5
:100E30002A2B35D1039B1A1D1B680392002BB8BFC8
:100E40004FF0FF3302340593DFF8C8A02178032266
:100E50005046FFF7C5F940B14023A0EB0A0003FA62
:100E600000F0049B03430134049314F8011B26484B
:100E70008DF828100622FFF7B3F9002838D0234B4D
:100E80001BBB039B073323F0070308330393099B22
:100E90003344099367E70CFB02320C460120A5E7B7
:100EA00000230134059319464FF00A0C204610F830
:100EB000012B303A092A03D9002BC5D00591C3E78D
:100EC0000CFB012104460123F0E703AB00932A4603
:100ED0000F4B04A93846AFF30080421C0646D6D11A
:100EE000AB895B063FF52CAF09981DB0BDE8F08FCC
:100EF00003AB00932A46064B04A9384600F07AF863
:100F0000EBE700BFA0140008AA14000800000000CE
:100F1000610C0008A61400082DE9F0471646994612
:100F20008A680B69DDF820809342B8BF13463360AE
:100F300091F8432007460C460AB101333360236819
:100F4000990642BF336802333360256815F0060501
:100F500006D104F1190AE36832689B1AAB4226DC19
:100F600094F84320131E226818BF012392062BD445
:100F700004F1430249463846C04701301ED0236879
:100F8000E568326803F00603042B08BFAD1AA368B6
:100F900022690CBF25EAE57500259342C4BF9B1A60
:100FA000ED1800261A34B5421AD1002008E00123BA
:100FB000524649463846C047013003D14FF0FF3012
:100FC000BDE8F0870135C6E7E1185A1C302081F8EA
:100FD0004300224494F8451082F843100233C7E7D7
:100FE0000123224649463846C0470130E6D0013643
:100FF000D9E700002DE9FF470C469146277E0C9962
:10100000782F80469A4604F1430207D8622F0AD807
:10101000002F00F0D880582F00F0A38004F1420682
:1010200084F842703AE0A7F16303152BF6D801A0CB
:1010300050F823F08D100008A11000081D100008C2
:101040001D1000081D1000081D100008A110000848
:101050001D1000081D1000081D1000081D100008BC
:10106000AD110008D11000088F1100081D100008F4
:101070001D100008CF1100081D100008D110000835
:101080001D1000081D100008971100080B681A1D9C
:101090001B680A6004F1420684F842300123A3E091
:1010A000256808682E0600F104030AD505680B6060
:1010B000002D03DA2D236D4284F843305E480A2365
:1010C00019E015F0400F05680B6018BF2DB2EFE76F
:1010D0000B682568181D0860280601D51D6802E008
:1010E0006906FBD51D8854486F2F0CBF08230A23BF
:1010F000002184F843106668A660002EA2BF216814
:1011000021F0040121600DB9002E4DD01646B5FB2B
:10111000F3F103FB1157C75D06F8017D2F46BB4273
:101120000D46F4D9082B0BD12368DF0708D52369B6
:1011300061689942DEBF302306F8013C06F1FF36B4
:10114000921B2261CDF800A04B4603AA21464046DF
:10115000FFF7E2FE01304CD14FF0FF3004B0BDE8A4
:10116000F087354884F8457023680E681F0656F8E6
:10117000045B0E6014D5D90744BF43F020032360FD
:101180001DB9236823F0200323601023B0E72368F0
:1011900043F0200323607823284884F84530E3E7B0
:1011A0005E0648BFADB2E6E71646BBE70B682668A9
:1011B00060691D1D0D6035061B6801D5186002E0D1
:1011C0007106FBD51880002323611646BAE70B6829
:1011D0001A1D0A601E68626800213046FFF700F899
:1011E00008B1801B606063682361002384F843308A
:1011F000A8E72369324649464046D0470130ABD084
:1012000023689B0713D4E068039B9842B8BF184635
:10121000A4E70123324649464046D04701309BD0DF
:101220000135E36803995B1AAB42F2DCEBE700257A
:1012300004F11906F5E700BFB1140008C214000854
:101240000A44914200F1FF3300D1704710B511F804
:10125000014B03F8014F9142F9D110BD884210B5FE
:1012600001EB020402D98442234607D8431EA1425F
:1012700008D011F8012B03F8012FF8E702440146CA
:101280008A4200D110BD13F8014D02F8014DF7E775
:1012900037B5002948D051F8043C0190002BA1F14A
:1012A0000404B8BFE41800F0D3F8204A019813688A
:1012B000154633B96360146003B0BDE8304000F0F8
:1012C000CDB8A3420BD921686218934204BF1A68B3
:1012D0005B68636004BF521822602C60ECE71A461A
:1012E0005B680BB1A342FAD911685518A5420BD11E
:1012F000246821445418A3421160DDD11C685B6846
:10130000536021441160D7E702D90C230360D3E76F
:10131000256861198B4204BF19685B68636004BF6C
:10132000491921605460C7E703B030BDEC000020CC
:10133000F8B5CD1C25F0030508350C2D38BF0C255C
:10134000002D064601DBA94203D90C23336000209F
:10135000F8BD00F07DF821490A6814469CB9204F79
:101360003B6823B92146304600F062F838602946D0
:10137000304600F05DF8431C23D10C233360304627
:1013800000F06CF8E3E723685B1B17D40B2B03D941
:1013900023601C44256004E06368A2420CBF0B601C
:1013A0005360304600F05AF804F10B00231D20F082
:1013B0000700C21ACCD01B1AA350C9E722466468A2
:1013C000CCE7C41C24F00304A042E3D0211A304629
:1013D00000F02EF80130DDD1CFE700BFEC00002097
:1013E000F0000020F8B5074614460E4621B9BDE8C6
:1013F000F8401146FFF79CBF22B9FFF749FF254689
:101400002846F8BD00F030F8A0420FD221463846F9
:10141000FFF78EFF05460028F2D031462246FFF73F
:101420000FFF31463846FFF733FFE9E73546E7E778
:1014300038B5064D0023044608462B60FFF740FBF5
:10144000431C02D12B6803B1236038BDF800002093
:10145000014800F011B800BF00010020014800F071
:101460000CB800BF0001002051F8043C181F002BED
:10147000BCBF0B58C018704770477047F8B500BF25
:10148000F8BC08BC9E467047F8B500BFF8BC08BC65
:041490009E467047BD
:10149400204C4D33353D2025640A0A00232D302B82
:1014A4002000686C4C006566674546470030313261
:1014B40033343536373839414243444546003031B8
:1014C4003233343536373839616263646566000017
:0414D400C501000846
:0414D800A101000866
:1014DC0001000000080000200000000000000000D7
:1014EC0000000000000000000000000000000000F0
:1014FC0000000000000000000000000000000000E0
:10150C0000000000000000000000000000000000CF
:10151C0000000000000000000000000000000000BF
:10152C0000000000000000000000000000000000AF
:08153C000000000000000000A7
:0400000508000B5193
:00000001FF
