:020000040800F2
:10000000008001203D030008C3020008C902000867
:10001000CF020008D5020008DB0200080000000043
:10002000000000000000000000000000E1020008E5
:10003000EF02000800000000FD0200080B030008AA
:100040008D0300088D0300088D0300088D03000850
:100050008D0300088D0300088D0300088D03000840
:100060008D0300088D0300088D0300088D03000830
:100070008D0300088D0300088D0300088D03000820
:100080008D0300088D0300088D03000800000000A8
:100090000000000000000000000000008D030008C8
:1000A0008D0300088D0300088D0300088D030008F0
:1000B0008D0300088D0300088D0300088D030008E0
:1000C0008D0300088D0300088D0300088D030008D0
:1000D0008D0300088D0300088D0300080000000058
:1000E0008D0300088D0300088D0300080000000048
:1000F0000000000000000000000000008D03000868
:10010000000000008D0300088D0300088D03000827
:1001100000000000000000000000000000000000DF
:100120008D0300088D0300088D0300088D0300086F
:100130008D03000800000000000000000000000027
:100140000000000000000000000000008D03000817
:100150008D0300088D0300088D0300088D0300083F
:100160008D0300088D03000800000000000000005F
:10017000000000000000000000000000000000007F
:10018000000000008D0300080000000000000000D7
:040190008D030008D3
:1001940010B5054C237833B9044B13B10448AFF3BD
:1001A40000800123237010BD040000200000000023
:1001B4000004000808B5034B1BB103490348AFF31F
:1001C400008008BD000000000800002000040008B2
:1001D40080B500AF294B1B6B284A43F0010313631E
:1001E400274B1B68264A23F47F431360244B1B6868
:1001F400234A43F4AA431360214B5B69204A43F02A
:10020400900353611E4B5B691D4A23F060035361E5
:100214004FF4FA7000F036F8194B5B69184A43F052
:1002240030035361164B5B69154A23F0C0035361D5
:100234004FF4FA7000F026F8114B5B69104A43F052
:10024400600353610E4B5B690D4A23F090035361C5
:100254004FF4FA7000F016F8094B5B69084A43F052
:10026400C0035361064B5B69054A23F030035361B5
:100274004FF4FA7000F006F8BEE700BF0038024001
:100284000000024080B485B000AF78600DE0002328
:10029400FB6002E0FB680133FB60FB6840F67A42D6
:1002A4009342F7DD7B68013B7B607B68002BEEDCCF
:1002B40000BF00BF1437BD465DF8047B704780B4AF
:1002C40000AFFEE780B400AFFEE780B400AFFEE706
:1002D40080B400AFFEE780B400AFFEE780B400AFA7
:1002E40000BFBD465DF8047B704780B400AF00BF1B
:1002F400BD465DF8047B704780B400AF00BFBD46C7
:100304005DF8047B704780B500AF00F03FF800BF94
:1003140080BD000080B400AF064BD3F88830054A96
:1003240043F47003C2F8883000BFBD465DF8047B17
:10033400704700BF00ED00E0DFF834D00D480E49EF
:100344000E4A002302E0D458C4500433C4188C422B
:10035400F9D30B4A0B4C002301E013600432A24290
:10036400FBD3FFF7D7FF00F025F8FFF731FF704705
:100374000080012000000020040000202004000868
:100384000400002024000020FEE7000080B400AF39
:10039400064B1B781A46064B1B681344044A136029
:1003A40000BFBD465DF8047B704700BF000000201D
:1003B4002000002070B50D4D0D4C641BA4100026C8
:1003C400A64209D10B4D0C4C00F018F8641BA41084
:1003D4000026A64205D170BD55F8043B9847013666
:1003E400EEE755F8043B98470136F2E71804000895
:1003F40018040008180400081C040008F8B500BF1D
:10040400F8BC08BC9E467047F8B500BFF8BC08BCF1
:040414009E46704749
:04041800B90100081E
:04041C00950100083E
:0404200001000000D7
:040000050800033DAF
:00000001FF
