:020000040800F2
:100000000080012019030008A1020008A7020008CF
:10001000AD020008B3020008B902000800000000A9
:10002000000000000000000000000000BF02000807
:10003000CD02000800000000DB020008E902000811
:1000400069030008690300086903000869030008E0
:1000500069030008690300086903000869030008D0
:1000600069030008690300086903000869030008C0
:1000700069030008690300086903000869030008B0
:100080006903000869030008690300080000000014
:1000900000000000000000000000000069030008EC
:1000A0006903000869030008690300086903000880
:1000B0006903000869030008690300086903000870
:1000C0006903000869030008690300086903000860
:1000D00069030008690300086903000800000000C4
:1000E00069030008690300086903000800000000B4
:1000F000000000000000000000000000690300088C
:100100000000000069030008690300086903000893
:1001100000000000000000000000000000000000DF
:1001200069030008690300086903000869030008FF
:10013000690300080000000000000000000000004B
:10014000000000000000000000000000690300083B
:1001500069030008690300086903000869030008CF
:1001600069030008690300080000000000000000A7
:10017000000000000000000000000000000000007F
:1001800000000000690300080000000000000000FB
:0401900069030008F7
:1001940010B5054C237833B9044B13B10448AFF3BD
:1001A40000800123237010BD040000200000000023
:1001B400DC03000808B5034B1BB103490348AFF344
:1001C400008008BD0000000008000020DC030008D7
:1001D40080B400AF094B1B68084A43F00103136065
:1001E40000BF064B1B6803F00203002BF9D000BFCD
:1001F40000BFBD465DF8047B704700BF0038024075
:1002040080B400AF174B1B6C164A43F0020313640F
:10021400144B1B6B134A43F001031363124B1B680B
:10022400114A43F400531360104B60229A610F4B40
:1002340002229A620D4BFF22DA620C4B00225A63AF
:10024400094B4FF000721A62084B1B6A074A43F0CD
:1002540001031362054B01221A6000BFBD465DF81D
:10026400047B704700380240000002400004004054
:1002740080B500AFFFF7ACFFFFF7C2FF064B5A6B28
:1002840001325A63044B5A6B034BDB6A9A42F5D131
:10029400014B00225A63F1E70004004080B400AF30
:1002A400FEE780B400AFFEE780B400AFFEE780B4A1
:1002B40000AFFEE780B400AFFEE780B400AF00BF3C
:1002C400BD465DF8047B704780B400AF00BFBD46F7
:1002D4005DF8047B704780B400AF00BFBD465DF895
:1002E400047B704780B500AF00F03EF800BF80BDCE
:1002F40080B400AF064BD3F88830054A43F470034A
:10030400C2F8883000BFBD465DF8047B704700BF6B
:1003140000ED00E0DFF834D00D480E490E4A00230A
:1003240002E0D458C4500433C4188C42F9D30B4AA5
:100334000B4C002301E013600432A242FBD3FFF70D
:10034400D7FF00F025F8FFF793FF704700800120E6
:100354000000002004000020FC030008040000202A
:1003640024000020FEE7000080B400AF064B1B7899
:100374001A46064B1B681344044A136000BFBD466B
:100384005DF8047B704700BF0000002020000020BF
:1003940070B50D4D0D4C641BA4100026A64209D166
:1003A4000B4D0C4C00F018F8641BA4100026A64258
:1003B40005D170BD55F8043B98470136EEE755F872
:1003C400043B98470136F2E7F4030008F4030008FD
:1003D400F4030008F8030008F8B500BFF8BC08BC33
:1003E4009E467047F8B500BFF8BC08BC9E467047EF
:0403F400B901000843
:0403F8009501000863
:0403FC0001000000FC
:0400000508000319D3
:00000001FF
