:020000040800F2
:100000000080012045030008CD020008D30200084B
:10001000D9020008DF020008E50200080000000025
:10002000000000000000000000000000EB020008DB
:10003000F90200080000000007030008150300088B
:100040009503000895030008950300089503000830
:100050009503000895030008950300089503000820
:100060009503000895030008950300089503000810
:100070009503000895030008950300089503000800
:100080009503000895030008950300080000000090
:1000900000000000000000000000000095030008C0
:1000A00095030008950300089503000895030008D0
:1000B00095030008950300089503000895030008C0
:1000C00095030008950300089503000895030008B0
:1000D0009503000895030008950200080000000041
:1000E0009503000895030008950300080000000030
:1000F0000000000000000000000000009503000860
:10010000000000009503000895030008950300080F
:1001100000000000000000000000000000000000DF
:10012000950300089503000895030008950300084F
:10013000950300080000000000000000000000001F
:10014000000000000000000000000000950300080F
:10015000950300089503000895030008950300081F
:10016000950300089503000800000000000000004F
:10017000000000000000000000000000000000007F
:1001800000000000950300080000000000000000CF
:0401900095030008CB
:1001940010B5054C237833B9044B13B10448AFF3BD
:1001A40000800123237010BD040000200000000023
:1001B4000804000808B5034B1BB103490348AFF317
:1001C400008008BD000000000800002008040008AA
:1001D40080B483B000AF0346FB7197F90730002B5E
:1001E4000BDBFB7903F01F02074997F907305B0922
:1001F400012000FA02F241F8232000BF0C37BD466B
:100204005DF8047B704700BF00E100E080B500AFFB
:1002140000F002F8FEE7000080B500AF194B1B6C3C
:10022400184A43F400331364164B1B6B154A43F00E
:1002340001031363144B1B6A134A43F4E063136210
:10024400114B1B68104A43F0200313600F4B40F21C
:1002540083629A600D4BDB680C4A43F00803D36059
:100264000A4BDB68094A43F40053D360074BDB684D
:10027400064A43F0A003D3602620FFF7A9FF00BF7E
:1002840080BD00BF0038024000000240004400402E
:1002940080B400AF0A4B1B6803F02003002B09D085
:1002A400074B5B68DAB2074B1A70064B1B78DAB25D
:1002B400034B5A6000BFBD465DF8047B704700BF26
:1002C400004400402000002080B400AFFEE780B46A
:1002D40000AFFEE780B400AFFEE780B400AFFEE7F6
:1002E40080B400AFFEE780B400AF00BFBD465DF848
:1002F400047B704780B400AF00BFBD465DF8047B4B
:10030400704780B400AF00BFBD465DF8047B704702
:1003140080B500AF00F03EF800BF80BD80B400AFF0
:10032400064BD3F88830054A43F47003C2F888308A
:1003340000BFBD465DF8047B704700BF00ED00E0E0
:10034400DFF834D00D480E490E4A002302E0D45899
:10035400C4500433C4188C42F9D30B4A0B4C002309
:1003640001E013600432A242FBD3FFF7D7FF00F091
:1003740025F8FFF74BFF70470080012000000020A4
:1003840004000020280400080400002028000020A5
:10039400FEE7000080B400AF064B1B781A46064BFC
:1003A4001B681344044A136000BFBD465DF8047B18
:1003B400704700BF000000202400002070B50D4DE0
:1003C4000D4C641BA4100026A64209D10B4D0C4C05
:1003D40000F018F8641BA4100026A64205D170BDD5
:1003E40055F8043B98470136EEE755F8043B984727
:1003F4000136F2E720040008200400082004000865
:1004040024040008F8B500BFF8BC08BC9E46704739
:0C041400F8B500BFF8BC08BC9E4670475D
:04042000B901000816
:040424009501000836
:0404280001000000CF
:0400000508000345A7
:00000001FF
