:020000040800F2
:10000000008001208904000811040008170400087A
:100010001D04000823040008290400080000000053
:100020000000000000000000000000002F04000895
:100030003D040008000000004B04000859040008BB
:10004000D9040008D9040008D9040008D90400081C
:10005000D9040008D9040008D9040008D90400080C
:10006000D9040008D9040008D9040008D9040008FC
:10007000D9040008D9040008D9040008D9040008EC
:10008000D9040008D9040008D904000800000000C1
:10009000000000000000000000000000D90400087B
:1000A000D9040008D9040008D9040008D9040008BC
:1000B00071030008D9040008D9040008D904000815
:1000C000D9040008D9040008D9040008D90400089C
:1000D000D9040008D9040008D90400080000000071
:1000E000D9040008D9040008D90400080000000061
:1000F000000000000000000000000000D90400081B
:1001000000000000D9040008D9040008D904000840
:1001100000000000000000000000000000000000DF
:10012000D9040008D9040008D9040008D90400083B
:10013000D9040008000000000000000000000000DA
:10014000000000000000000000000000D9040008CA
:10015000D9040008D9040008D9040008D90400080B
:10016000D9040008D90400080000000000000000C5
:10017000000000000000000000000000000000007F
:1001800000000000D904000800000000000000008A
:04019000D904000886
:1001940010B5054C237833B9044B13B10448AFF3BD
:1001A40000800123237010BD0C000020000000001B
:1001B4004C05000808B5034B1BB103490348AFF3D2
:1001C400008008BD00000000100000204C0500085D
:1001D40080B483B000AF0346FB7197F90730002B5E
:1001E4000BDBFB7903F01F02074997F907305B0922
:1001F400012000FA02F241F8232000BF0C37BD466B
:100204005DF8047B704700BF00E100E080B500AFFB
:10021400404B1B6B3F4A43F0020313633D4B1B6B84
:100224003C4A43F0040313633B4B1B683A4A1B0CE0
:100234001B041360384B1B68374A43F4AA4343F04A
:1002440055031360354B1B68344A23F00F031360C6
:10025400324B1B68314A43F0050313602D4B1B6C72
:100264002C4A43F0010313644FF0804340F23F6291
:100274009A624FF0804340F2E732DA624FF08043F3
:1002840001221A604FF08043DB684FF0804243F054
:100294000103D3601C20FFF79BFF62B600BF204B15
:1002A40000221A7029E01F4B00221A700EE01E4B28
:1002B4001B780133DAB21C4B1A70642000F038F852
:1002C400184B1B780133DAB2164B1A70154B1B7896
:1002D400092BECD9154B1B780133DAB2134B1A7086
:1002E400114B1B780A2B02D10F4B00221A700C4BB6
:1002F4001B780133DAB20A4B1A70094B1B78092BAD
:10030400D1D90A4B1B780A2BC9D1084B00221A7089
:10031400C5E700BF00380240000802400004024064
:100324002B000020290000202A0000202C0000209F
:1003340080B485B000AF78600DE00023FB6002E07C
:10034400FB680133FB60FB6840F67A429342F7DDB9
:100354007B68013B7B607B68002BEEDC00BF00BF49
:100364001437BD465DF8047B7047000080B400AFCD
:100374004FF0804300221A611E4B1B7883F0010367
:10038400DBB2002B03D01B4B01221A7002E0194B85
:1003940000221A70174B1B7883F00103DBB2002B89
:1003A4000FD0154B1B781A46144B9B5CDA43144B45
:1003B4005A61144B4FF480329A61124B02229A61B3
:1003C40012E00C4B1B78002B0ED00F4B1B781A46F7
:1003D4000A4B9B5CDA430A4B5A610A4B4FF40032D6
:1003E4009A61084B01229A6100BFBD465DF8047B07
:1003F400704700BF280000202C00002000000020CF
:1004040000080240000402402A00002080B400AF2B
:10041400FEE780B400AFFEE780B400AFFEE780B42F
:1004240000AFFEE780B400AFFEE780B400AF00BFCA
:10043400BD465DF8047B704780B400AF00BFBD4685
:100444005DF8047B704780B400AF00BFBD465DF823
:10045400047B704780B500AF00F03EF800BF80BD5C
:1004640080B400AF064BD3F88830054A43F47003D8
:10047400C2F8883000BFBD465DF8047B704700BFFA
:1004840000ED00E0DFF834D00D480E490E4A002399
:1004940002E0D458C4500433C4188C42F9D30B4A34
:1004A4000B4C002301E013600432A242FBD3FFF79C
:1004B400D7FF00F025F8FFF7A9FE70470080012060
:1004C400000000200C0000206C0500080C00002037
:1004D40034000020FEE7000080B400AF064B1B7818
:1004E4001A46064B1B681344044A136000BFBD46FA
:1004F4005DF8047B704700BF0A0000203000002034
:1005040070B50D4D0D4C641BA4100026A64209D1F4
:100514000B4D0C4C00F018F8641BA4100026A642E6
:1005240005D170BD55F8043B98470136EEE755F800
:10053400043B98470136F2E76405000864050008A7
:100544006405000868050008F8B500BFF8BC08BCDD
:100554009E467047F8B500BFF8BC08BC9E4670477D
:04056400B9010008D1
:0405680095010008F1
:0C056C00C0F9A4B0999282F880900100C0
:040000050800048962
:00000001FF
