:020000040800F2
:10000000008001207D030008050300080B030008A1
:1000100011030008170300081D030008000000007A
:1000200000000000000000000000000023030008A2
:1000300031030008000000003F0300084D030008E2
:10004000CD030008CD030008CD030008CD03000850
:10005000CD030008CD030008CD030008CD03000840
:10006000CD030008CD030008CD030008CD03000830
:10007000CD030008CD030008CD030008CD03000820
:10008000CD030008CD030008CD03000800000000E8
:10009000000000000000000000000000CD03000888
:1000A000CD030008CD030008CD030008CD030008F0
:1000B000CD030008CD030008CD030008CD030008E0
:1000C000CD030008CD030008CD030008CD030008D0
:1000D000CD030008CD030008A502000800000000C1
:1000E000CD030008CD030008CD0300080000000088
:1000F000000000000000000000000000CD03000828
:1001000000000000CD030008CD030008CD03000867
:1001100000000000000000000000000000000000DF
:10012000CD030008CD030008CD030008CD0300086F
:10013000CD030008000000000000000000000000E7
:10014000000000000000000000000000CD030008D7
:10015000CD030008CD030008CD030008CD0300083F
:10016000CD030008CD0300080000000000000000DF
:10017000000000000000000000000000000000007F
:1001800000000000CD030008000000000000000097
:04019000CD03000893
:1001940010B5054C237833B9044B13B10448AFF3BD
:1001A40000800123237010BD040000200000000023
:1001B4004004000808B5034B1BB103490348AFF3DF
:1001C400008008BD00000000080000204004000872
:1001D40080B400AF184B1B6C174A43F4003313640C
:1001E400154B1B6B144A43F001031363134B1B6A37
:1001F400124A43F4EE431362104B1B680F4A43F058
:10020400A00313600E4B9B680D4A43F4D06343F084
:10021400030393600A4BDB68094A43F00C03D36081
:10022400074BDB68064A43F40053D36000BFBD4666
:100234005DF8047B704700BF0038024000000240B4
:100244000044004080B483B000AF0346FB7100BF9C
:10025400074B1B6803F08003002BF9D0044AFB7999
:10026400536000BF0C37BD465DF8047B704700BF88
:100274000044004080B582B000AF786007E07B683E
:100284001B781846FFF7DEFF7B6801337B607B68D1
:100294001B78002BF3D100BF00BF0837BD4680BDDB
:1002A40080B582B000AF084B1B6803F02003002B1D
:1002B40006D0054B5B68FB71FB791846FFF7C2FF5C
:1002C40000BF0837BD4680BD0044004080B582B001
:1002D40000AFFFF77DFF0848FFF7CCFF074B1B6813
:1002E40003F02003002BF9D0044B5B68FB71FB790E
:1002F4001846FFF7A7FFF1E7580400080044004040
:1003040080B400AFFEE780B400AFFEE780B400AF76
:10031400FEE780B400AFFEE780B400AFFEE780B430
:1003240000AF00BFBD465DF8047B704780B400AFEA
:1003340000BFBD465DF8047B704780B400AF00BFCA
:10034400BD465DF8047B704780B500AF00F03EF811
:1003540000BF80BD80B400AF064BD3F88830054A97
:1003640043F47003C2F8883000BFBD465DF8047BD7
:10037400704700BF00ED00E0DFF834D00D480E49AF
:100384000E4A002302E0D458C4500433C4188C42EB
:10039400F9D30B4A0B4C002301E013600432A24250
:1003A400FBD3FFF7D7FF00F025F8FFF78FFF704767
:1003B40000800120000000200400002070040008D8
:1003C4000400002024000020FEE7000080B400AFF9
:1003D400064B1B781A46064B1B681344044A1360E9
:1003E40000BFBD465DF8047B704700BF00000020DD
:1003F4002000002070B50D4D0D4C641BA410002688
:10040400A64209D10B4D0C4C00F018F8641BA41043
:100414000026A64205D170BD55F8043B9847013625
:10042400EEE755F8043B98470136F2E76804000804
:1004340068040008680400086C040008F8B500BFEC
:10044400F8BC08BC9E467047F8B500BFF8BC08BCB1
:040454009E46704709
:10045800554152542044454D4F205458205258007D
:04046800B9010008CE
:04046C0095010008EE
:040470000100000087
:040000050800037D6F
:00000001FF
