:020000040800F2
:100000000080012081040008090400080F04000892
:10001000150400081B04000821040008000000006B
:10002000000000000000000000000000270400089D
:1000300035040008000000004304000851040008D3
:10004000D1040008D1040008D1040008D10400083C
:10005000D1040008D1040008D1040008D10400082C
:10006000D1040008D1040008D1040008D10400081C
:10007000D1040008D1040008D1040008D10400080C
:10008000D1040008D1040008D104000800000000D9
:10009000000000000000000000000000D104000883
:1000A000D1040008D1040008D1040008D1040008DC
:1000B000D1040008D1040008D1040008D1040008CC
:1000C000D1040008D1040008D1040008D1040008BC
:1000D000D1040008D1040008D10400080000000089
:1000E000D1040008D1040008D10400080000000079
:1000F000000000000000000000000000D104000823
:1001000000000000D1040008D1040008D104000858
:1001100000000000000000000000000000000000DF
:10012000D1040008D1040008D1040008D10400085B
:10013000D1040008000000000000000000000000E2
:10014000000000000000000000000000D1040008D2
:10015000D1040008D1040008D1040008D10400082B
:10016000D1040008D10400080000000000000000D5
:10017000000000000000000000000000000000007F
:1001800000000000D1040008000000000000000092
:04019000D10400088E
:1001940010B5054C237833B9044B13B10448AFF3BD
:1001A40000800123237010BD040000200000000023
:1001B4004405000808B5034B1BB103490348AFF3DA
:1001C400008008BD0000000008000020440500086D
:1001D40080B500AF00F02AF8482000F0DBF8452095
:1001E40000F0D8F84C2000F0D5F84C2000F0D2F8FC
:1001F4004F2000F0CFF8202000F0CCF8342000F09D
:10020400C9F8622000F0C6F8692000F0C3F8742031
:1002140000F0C0F84FF47A7000F0D7F8012000F035
:1002240097F84FF47A7000F0D0F8D5E780B500AFB6
:1002340000F02EF8142000F0C8F80021302000F05F
:1002440057F8052000F0C1F80021302000F050F8E4
:10025400012000F0BAF80021302000F049F8012014
:1002640000F0B3F80021202000F042F8012000F053
:10027400ACF8282000F06CF8062000F069F80120A2
:1002840000F066F80F2000F063F800BF80BD0000A6
:1002940080B400AF134B1B6B124A43F00603136385
:1002A400114B1B68104A23F44C4313600E4B1B681C
:1002B4000D4A43F4884313600B4B4FF400029A61D8
:1002C4000A4B1B68094A23F47F431360074B1B68DE
:1002D400064A43F4AA43136000BFBD465DF8047B9D
:1002E400704700BF0038024000040240000802408A
:1002F40080B582B000AF03460A46FB711346BB715A
:10030400114B4FF470029A61FB790F4A03F0F0032A
:100314009361BB7903F02003002B03D00B4B202205
:100324009A6103E0094B4FF400129A61074B802253
:100334009A61002000F049F8044B4FF400029A61DE
:1003440000BF0837BD4680BD0008024000040240DB
:1003540080B582B000AF0346FB71FB7923F00F0335
:10036400DBB200211846FFF7C3FFFB791B01DBB2A8
:1003740000211846FFF7BCFFFB79032B03D80220AA
:1003840000F023F802E0012000F01FF800BF083756
:10039400BD4680BD80B582B000AF0346FB71FB79DA
:1003A40023F00F03DBB220211846FFF7A1FFFB79EE
:1003B4001B01DBB220211846FFF79AFF012000F051
:1003C40004F800BF0837BD4680BD80B485B000AFD7
:1003D40078600DE00023FB6002E0FB680133FB6002
:1003E400FB6840F67A429342F7DD7B68013B7B6011
:1003F4007B68002BEEDC00BF00BF1437BD465DF800
:10040400047B704780B400AFFEE780B400AFFEE722
:1004140080B400AFFEE780B400AFFEE780B400AF65
:10042400FEE780B400AF00BFBD465DF8047B7047B3
:1004340080B400AF00BFBD465DF8047B704780B454
:1004440000AF00BFBD465DF8047B704780B500AFC8
:1004540000F03EF800BF80BD80B400AF064BD3F877
:100464008830054A43F47003C2F8883000BFBD46A3
:100474005DF8047B704700BF00ED00E0DFF834D086
:100484000D480E490E4A002302E0D458C4500433E8
:10049400C4188C42F9D30B4A0B4C002301E01360BF
:1004A4000432A242FBD3FFF7D7FF00F025F8FFF791
:1004B4008FFE70470080012000000020040000200F
:1004C400640500080400002024000020FEE700006A
:1004D40080B400AF064B1B781A46064B1B681344C6
:1004E400044A136000BFBD465DF8047B704700BF3B
:1004F400000000202000002070B50D4D0D4C641B41
:10050400A4100026A64209D10B4D0C4C00F018F89B
:10051400641BA4100026A64205D170BD55F8043B07
:1005240098470136EEE755F8043B98470136F2E761
:100534005C0500085C0500085C050008600500080F
:10054400F8B500BFF8BC08BC9E467047F8B500BFBC
:08055400F8BC08BC9E4670478C
:04055C00B9010008D9
:0405600095010008F9
:040564000100000092
:04000005080004816A
:00000001FF
